:020000040000fa
:080000000002040000000000f2
:020000040000fa
:04000800c80200002a
:020000040000fa
:04000c00c802000026
:020000040000fa
:04001000c802000022
:020000040000fa
:04001400c80200001e
:020000040000fa
:04001800c80200001a
:020000040000fa
:04001c00c802000016
:020000040000fa
:04002000c802000012
:020000040000fa
:04002400c80200000e
:020000040000fa
:04002800c80200000a
:020000040000fa
:04002c00c802000006
:020000040000fa
:04003000c802000002
:020000040000fa
:04003400c8020000fe
:020000040000fa
:04003800c8020000fa
:020000040000fa
:04003c00c8020000f6
:020000040000fa
:04004000c8020000f2
:020000040000fa
:04004400c8020000ee
:020000040000fa
:04004800c8020000ea
:020000040000fa
:04004c00c8020000e6
:020000040000fa
:04005000c8020000e2
:020000040000fa
:04005400c8020000de
:020000040000fa
:04005800c8020000da
:020000040000fa
:04005c00c8020000d6
:020000040000fa
:04006000c8020000d2
:020000040000fa
:04006400c8020000ce
:020000040000fa
:04006800c8020000ca
:020000040000fa
:04006c00c8020000c6
:020000040000fa
:04007000c8020000c2
:020000040000fa
:04007400c8020000be
:020000040000fa
:04007800c8020000ba
:020000040000fa
:04007c00c8020000b6
:020000040000fa
:04008000c8020000b2
:020000040000fa
:04008400c8020000ae
:020000040000fa
:04008800c8020000aa
:020000040000fa
:04008c00c8020000a6
:020000040000fa
:04009000c8020000a2
:020000040000fa
:04009400c80200009e
:020000040000fa
:04009800c80200009a
:020000040000fa
:04009c00c802000096
:020000040000fa
:0400a000c802000092
:020000040000fa
:0400a400c80200008e
:020000040000fa
:0400a800c80200008a
:020000040000fa
:0400ac00c802000086
:020000040000fa
:0400b000c802000082
:020000040000fa
:0400b400c80200007e
:020000040000fa
:0400b800c80200007a
:020000040000fa
:0400bc00c802000076
:020000040000fa
:0400c000c802000072
:020000040000fa
:0400c400c80200006e
:020000040000fa
:0400c800c80200006a
:020000040000fa
:0400cc00c802000066
:020000040000fa
:0400d000c802000062
:020000040000fa
:0400d400c80200005e
:020000040000fa
:0400d800c80200005a
:020000040000fa
:0400dc00c802000056
:020000040000fa
:0400e000c802000052
:020000040000fa
:0400e400c80200004e
:020000040000fa
:0400e800c80200004a
:020000040000fa
:0400ec00c802000046
:020000040000fa
:0400f000c802000042
:020000040000fa
:0400f400c80200003e
:020000040000fa
:0400f800c80200003a
:020000040000fa
:0400fc00c802000036
:020000040000fa
:04010000c802000031
:020000040000fa
:04010400c80200002d
:020000040000fa
:04010800c802000029
:020000040000fa
:04010c00c802000025
:020000040000fa
:04011000c802000021
:020000040000fa
:04011400c80200001d
:020000040000fa
:04011800c802000019
:020000040000fa
:04011c00c802000015
:020000040000fa
:04012000c802000011
:020000040000fa
:04012400c80200000d
:020000040000fa
:04012800c802000009
:020000040000fa
:04012c00c802000005
:020000040000fa
:04013000c802000001
:020000040000fa
:04013400c8020000fd
:020000040000fa
:04020800c802000028
:020000040000fa
:04020c00c802000024
:020000040000fa
:04021000c802000020
:020000040000fa
:04021400c80200001c
:020000040000fa
:04021800c802000018
:020000040000fa
:04021c00c802000014
:020000040000fa
:04022000c802000010
:020000040000fa
:04022400c80200000c
:020000040000fa
:04022800c802000008
:020000040000fa
:04022c00c802000004
:020000040000fa
:04023000c802000000
:020000040000fa
:04023400c8020000fc
:020000040000fa
:04023800c8020000f8
:020000040000fa
:04023c00c8020000f4
:020000040000fa
:04024000c8020000f0
:020000040000fa
:04024400c8020000ec
:020000040000fa
:04024800c8020000e8
:020000040000fa
:04024c00c8020000e4
:020000040000fa
:04025000c8020000e0
:020000040000fa
:04025400c8020000dc
:020000040000fa
:04025800c8020000d8
:020000040000fa
:04025c00c8020000d4
:020000040000fa
:04026000c8020000d0
:020000040000fa
:04026400c8020000cc
:020000040000fa
:04026800c8020000c8
:020000040000fa
:04026c00c8020000c4
:020000040000fa
:04027000c8020000c0
:020000040000fa
:04027400c8020000bc
:020000040000fa
:04027800c8020000b8
:020000040000fa
:04027c00c8020000b4
:020000040000fa
:04028000c8020000b0
:020000040000fa
:04028400c8020000ac
:020000040000fa
:04028800c8020000a8
:020000040000fa
:04028c00c8020000a4
:020000040000fa
:04029000c8020000a0
:020000040000fa
:04029400c80200009c
:020000040000fa
:04029800c802000098
:020000040000fa
:04029c00c802000094
:020000040000fa
:0402a000c802000090
:020000040000fa
:0402a400c80200008c
:020000040000fa
:0402a800c802000088
:020000040000fa
:0402ac00c802000084
:020000040000fa
:0402b000c802000080
:020000040000fa
:0402b400c80200007c
:020000040000fa
:0402b800c802000078
:020000040000fa
:0402bc00c802000074
:020000040000fa
:0402c000c802000070
:020000040000fa
:0402c400c80200006c
:020000040000fa
:0402c800c802000068
:020000040000fa
:0402cc00c802000064
:020000040000fa
:0402d000c802000060
:020000040000fa
:0402d400c80200005c
:020000040000fa
:0402d800c802000058
:020000040000fa
:0402dc00c802000054
:020000040000fa
:0402e000c802000050
:020000040000fa
:0402e400c80200004c
:020000040000fa
:0402e800c802000048
:020000040000fa
:0402ec00c802000044
:020000040000fa
:0402f000c802000040
:020000040000fa
:0402f400c80200003c
:020000040000fa
:0402f800c802000038
:020000040000fa
:0402fc00c802000034
:020000040000fa
:04030000c80200002f
:020000040000fa
:04030400c80200002b
:020000040000fa
:04030800c802000027
:020000040000fa
:04030c00c802000023
:020000040000fa
:04031000c80200001f
:020000040000fa
:04031400c80200001b
:020000040000fa
:04031800c802000017
:020000040000fa
:04031c00c802000013
:020000040000fa
:04032000c80200000f
:020000040000fa
:04032400c80200000b
:020000040000fa
:04032800c802000007
:020000040000fa
:04032c00c802000003
:020000040000fa
:04033000c8020000ff
:020000040000fa
:04033400c8020000fb
:020000040000fa
:100400000f8020000e7f22000e01880000000000f7
:10041000000020000000e000020032000001200087
:1004200020028800140007005b0007000000e000c5
:1004300003003a0000002000010020000200370005
:100440000000200001002000810f70000100320038
:1004500014000700000020000000e000020032004d
:1004600000000200000000009c03020000000000e9
:100470000040da000000fe004440a9000000200017
:100480000000e0000300320000002000a00188000e
:100490004440a800000006008a1f78008b1f7800e7
:1004a0000000060091018800800478000000eb0045
:1004b0001a003700e284440032a0b4009905ba0063
:1004c000e284440032a0b4009906ba00e2844400f9
:1004d00032a0b4000006eb00476fde00fd07b2005b
:1004e000636ce10003003a00ebff07000000eb0043
:1004f0000a003700606ce10004003a00005deb0088
:100500008b05e900fdff3e00040037006168e10053
:10051000010032000086eb000b00070019c7ba008b
:100520001905ba000e04e00003003a000a00e000da
:10053000e0ff3a0000000600fe07b2009e018800be
:100540008a047800f5ff3700395dba008b05e900b1
:100550000c003200295dba008b05e900080032006a
:100560000c00e00003003a00e284440032a0b40032
:10057000f5ff370019ddba008b05e900faff3a00f4
:100580008904e800e184440032a0b40000000600c1
:0c0590000040da000000fe000000050042
:020000040000fa
:10059c004a00fa00889fbe00402798000f0478009c
:1005ac000000eb00000f78000000eb001007980033
:1005bc0015003700ce20900010002800008060004d
:1005cc000000e00004003d000000e900e1ff2f0006
:1005dc00008070000000e800800078001e007800a9
:1005ec00000040000000470068004000010878004f
:1005fc004e209000cf00de00008040000080d10033
:10060c00402798001e0fe8004e2090000000e000ec
:10061c00e8ff3c001e00780000004000000047008e
:10062c00680040008000eb00010878001e0fe80015
:10063c001e0078008f007800810478008000e900ab
:10064c0021079800000040000000e8000000e800ce
:10065c000000d100800040000f0078008187470027
:10066c000000e8000000d1000000400030079800b6
:10067c00120037001e00e900000040000000470097
:10068c00c00090001e80e900000040000000470000
:10069c0040009000808068003e0190001e00900099
:1006ac000000400000004100010878001e0fe90026
:1006bc001e0090000000e800100798001e00780053
:1006cc00e10f5000ebff3c003e0090009e009000bc
:1006dc000500070089077800880778004f04be00e2
:1006ec000080fa00000006000600fa0010079800cf
:1006fc00210798000000eb00000f78002e009000fe
:10070c009e007800808f500006003d001e0078008f
:10071c00000040009e009000008040001000780017
:10072c00000037000080fa00000006000800fa0004
:10073c0010002000000f78000040eb0040479800ac
:10074c000040eb00504798000040eb0060479800d9
:10075c000040eb0070479800100020001007980034
:10076c00c022ef000080eb009016880003003700d9
:10077c000000000001003700000000001e00900087
:10078c00e20f500014003200e20f500003003c0056
:10079c00e10f50000600320028003700e30f500034
:1007ac0017003200e40f5000200032002300370005
:1007bc009e007800211688001e0fe800f00f200024
:1007cc009e007800808f50001f003a000000eb0064
:1007dc00000f7800210037009e0078002116880059
:1007ec001e0fe900f00f20009e007800808f500053
:1007fc0017003a000000eb00000f780017003700dc
:10080c001e00780062ff0700201688001e0fe8000b
:10081c00f00f20009e007800808f50000e003a00f0
:10082c000000eb00000f78000c0037009e007800f1
:10083c006780400020168800080037001e009000da
:10084c002016880005003700000000000300370068
:10085c00000000000100370000000000a01680001e
:10086c004600de006140600050479800a0168000f2
:10087c004700de006140600070479800009f240034
:10088c002100200074000700a01680004600de0046
:10089c006140600040479800a01680004700de00d1
:1008ac0061406000604798004e4090008000fb0063
:1008bc005e4090000000fb0000805000e10f5000f3
:1008cc000a003a001e0090000000e9001007980092
:1008dc0010002000000f78001e0090000000e000c7
:1008ec0002003c0040002000100798006e40900071
:1008fc008000fb007e4090000000fb000080500058
:10090c00e10f50009aff3a001e0090000000e80032
:10091c001007980010002000000f78001e009000b7
:10092c00e40f500094ff34001000200010079800d2
:10093c0092ff37000600fa0010002000000f78002c
:10094c000040eb00404798000040eb0050479800f7
:10095c001000200010079800c022ef000080eb0070
:10096c0090168800030037000000000001003700db
:10097c00000000001e009000e10f50000300320048
:10098c00e20f50000b003200170037009e00780079
:10099c00211688001e0fe800f00f20009e00780042
:1009ac00808f50000d003a000000eb00000f780023
:1009bc000d0037009e007800211688001e0fe900fc
:1009cc00f00f20009e007800808f500005003a0048
:1009dc000000eb00000f780003003700000000005f
:1009ec000100370000000000a01680004600de0069
:1009fc006140600050479800006a280011002000f8
:100a0c0015000700a01680004600de006140600063
:100a1c00404798005e409000e14f5000d2ff3a00f2
:100a2c004e4090000004e000d1ff3a001e00900000
:100a3c000000e800100798001e009000e20f500024
:100a4c000200340010002000100798001000200055
:080a5c00000f7800c7ff37000e
:020000040000fa
:100a6400f03fb1000180b10006003500ee0309003b
:100a740000000000403fb1000180b100fbff3d00d9
:100a84001000b000203fb0000200350000800900d3
:080a9400000000000000060054
:020000040000fa
:020000040002f8
:04aff8009dff0000b9
:020000040000fa
:020000040002f8
:04affc00ff3f000013
:00000001FF
